{
  "contractName": "SmartContract",
  "abi": [
    {
      "anonymous": false,
      "inputs": [
        {
          "indexed": true,
          "internalType": "string",
          "name": "did",
          "type": "string"
        },
        {
          "indexed": true,
          "internalType": "address",
          "name": "controller",
          "type": "address"
        },
        {
          "indexed": false,
          "internalType": "uint256",
          "name": "timestamp",
          "type": "uint256"
        }
      ],
      "name": "DIDDocumentUpdated",
      "type": "event"
    },
    {
      "anonymous": false,
      "inputs": [
        {
          "indexed": true,
          "internalType": "string",
          "name": "did",
          "type": "string"
        }
      ],
      "name": "DIDRegistered",
      "type": "event"
    },
    {
      "anonymous": false,
      "inputs": [
        {
          "indexed": true,
          "internalType": "string",
          "name": "vin",
          "type": "string"
        },
        {
          "indexed": true,
          "internalType": "address",
          "name": "insurer",
          "type": "address"
        },
        {
          "indexed": true,
          "internalType": "address",
          "name": "owner",
          "type": "address"
        }
      ],
      "name": "InsurancePolicyCreated",
      "type": "event"
    },
    {
      "anonymous": false,
      "inputs": [
        {
          "indexed": true,
          "internalType": "string",
          "name": "sourceIdentifier",
          "type": "string"
        },
        {
          "indexed": true,
          "internalType": "string",
          "name": "destinationIdentifier",
          "type": "string"
        },
        {
          "indexed": false,
          "internalType": "string",
          "name": "interactionType",
          "type": "string"
        }
      ],
      "name": "InteractionRecorded",
      "type": "event"
    },
    {
      "anonymous": false,
      "inputs": [
        {
          "indexed": true,
          "internalType": "string",
          "name": "vin",
          "type": "string"
        },
        {
          "indexed": true,
          "internalType": "address",
          "name": "mechanic",
          "type": "address"
        },
        {
          "indexed": false,
          "internalType": "string",
          "name": "serviceDescription",
          "type": "string"
        }
      ],
      "name": "MaintenanceRecordAdded",
      "type": "event"
    },
    {
      "anonymous": false,
      "inputs": [
        {
          "indexed": true,
          "internalType": "string",
          "name": "vin",
          "type": "string"
        },
        {
          "indexed": true,
          "internalType": "address",
          "name": "mechanic",
          "type": "address"
        }
      ],
      "name": "MechanicAuthorized",
      "type": "event"
    },
    {
      "anonymous": false,
      "inputs": [
        {
          "indexed": true,
          "internalType": "address",
          "name": "unitAddress",
          "type": "address"
        },
        {
          "indexed": false,
          "internalType": "string",
          "name": "name",
          "type": "string"
        },
        {
          "indexed": false,
          "internalType": "string",
          "name": "location",
          "type": "string"
        }
      ],
      "name": "RoadsideUnitRegistered",
      "type": "event"
    },
    {
      "anonymous": false,
      "inputs": [
        {
          "indexed": true,
          "internalType": "address",
          "name": "userAddress",
          "type": "address"
        },
        {
          "indexed": false,
          "internalType": "string",
          "name": "name",
          "type": "string"
        },
        {
          "indexed": false,
          "internalType": "enum SmartContract.UserType",
          "name": "userType",
          "type": "uint8"
        }
      ],
      "name": "UserRegistered",
      "type": "event"
    },
    {
      "anonymous": false,
      "inputs": [
        {
          "indexed": true,
          "internalType": "string",
          "name": "vin",
          "type": "string"
        },
        {
          "indexed": true,
          "internalType": "address",
          "name": "previousOwner",
          "type": "address"
        },
        {
          "indexed": true,
          "internalType": "address",
          "name": "newOwner",
          "type": "address"
        }
      ],
      "name": "VehicleOwnershipTransferred",
      "type": "event"
    },
    {
      "anonymous": false,
      "inputs": [
        {
          "indexed": true,
          "internalType": "string",
          "name": "vin",
          "type": "string"
        },
        {
          "indexed": true,
          "internalType": "address",
          "name": "owner",
          "type": "address"
        }
      ],
      "name": "VehicleRegistered",
      "type": "event"
    },
    {
      "inputs": [
        {
          "internalType": "string",
          "name": "",
          "type": "string"
        },
        {
          "internalType": "address",
          "name": "",
          "type": "address"
        }
      ],
      "name": "authorizedMechanics",
      "outputs": [
        {
          "internalType": "bool",
          "name": "",
          "type": "bool"
        }
      ],
      "stateMutability": "view",
      "type": "function",
      "constant": true
    },
    {
      "inputs": [
        {
          "internalType": "string",
          "name": "",
          "type": "string"
        }
      ],
      "name": "didDocuments",
      "outputs": [
        {
          "internalType": "string",
          "name": "did",
          "type": "string"
        },
        {
          "internalType": "string",
          "name": "document",
          "type": "string"
        },
        {
          "internalType": "uint256",
          "name": "timestamp",
          "type": "uint256"
        },
        {
          "internalType": "bool",
          "name": "isActive",
          "type": "bool"
        },
        {
          "internalType": "address",
          "name": "controller",
          "type": "address"
        }
      ],
      "stateMutability": "view",
      "type": "function",
      "constant": true
    },
    {
      "inputs": [
        {
          "internalType": "string",
          "name": "",
          "type": "string"
        }
      ],
      "name": "didRegistry",
      "outputs": [
        {
          "internalType": "bool",
          "name": "",
          "type": "bool"
        }
      ],
      "stateMutability": "view",
      "type": "function",
      "constant": true
    },
    {
      "inputs": [
        {
          "internalType": "string",
          "name": "",
          "type": "string"
        }
      ],
      "name": "didToAddress",
      "outputs": [
        {
          "internalType": "address",
          "name": "",
          "type": "address"
        }
      ],
      "stateMutability": "view",
      "type": "function",
      "constant": true
    },
    {
      "inputs": [
        {
          "internalType": "uint256",
          "name": "",
          "type": "uint256"
        }
      ],
      "name": "interactions",
      "outputs": [
        {
          "internalType": "address",
          "name": "source",
          "type": "address"
        },
        {
          "internalType": "address",
          "name": "destination",
          "type": "address"
        },
        {
          "internalType": "string",
          "name": "sourceIdentifier",
          "type": "string"
        },
        {
          "internalType": "string",
          "name": "destinationIdentifier",
          "type": "string"
        },
        {
          "internalType": "string",
          "name": "interactionType",
          "type": "string"
        },
        {
          "internalType": "bytes",
          "name": "payload",
          "type": "bytes"
        },
        {
          "internalType": "uint256",
          "name": "timestamp",
          "type": "uint256"
        }
      ],
      "stateMutability": "view",
      "type": "function",
      "constant": true
    },
    {
      "inputs": [
        {
          "internalType": "string",
          "name": "",
          "type": "string"
        },
        {
          "internalType": "address",
          "name": "",
          "type": "address"
        },
        {
          "internalType": "uint256",
          "name": "",
          "type": "uint256"
        }
      ],
      "name": "maintenanceHistory",
      "outputs": [
        {
          "internalType": "address",
          "name": "mechanic",
          "type": "address"
        },
        {
          "internalType": "string",
          "name": "serviceDescription",
          "type": "string"
        },
        {
          "internalType": "uint256",
          "name": "timestamp",
          "type": "uint256"
        },
        {
          "internalType": "bool",
          "name": "isCritical",
          "type": "bool"
        }
      ],
      "stateMutability": "view",
      "type": "function",
      "constant": true
    },
    {
      "inputs": [
        {
          "internalType": "string",
          "name": "",
          "type": "string"
        }
      ],
      "name": "registeredDIDs",
      "outputs": [
        {
          "internalType": "bool",
          "name": "",
          "type": "bool"
        }
      ],
      "stateMutability": "view",
      "type": "function",
      "constant": true
    },
    {
      "inputs": [
        {
          "internalType": "uint256",
          "name": "",
          "type": "uint256"
        }
      ],
      "name": "registeredVINs",
      "outputs": [
        {
          "internalType": "string",
          "name": "",
          "type": "string"
        }
      ],
      "stateMutability": "view",
      "type": "function",
      "constant": true
    },
    {
      "inputs": [
        {
          "internalType": "address",
          "name": "",
          "type": "address"
        }
      ],
      "name": "roadsideUnits",
      "outputs": [
        {
          "internalType": "address",
          "name": "unitAddress",
          "type": "address"
        },
        {
          "internalType": "string",
          "name": "name",
          "type": "string"
        },
        {
          "internalType": "string",
          "name": "location",
          "type": "string"
        },
        {
          "internalType": "string",
          "name": "entityDID",
          "type": "string"
        },
        {
          "internalType": "string",
          "name": "walletDID",
          "type": "string"
        },
        {
          "internalType": "bool",
          "name": "isActive",
          "type": "bool"
        },
        {
          "internalType": "uint256",
          "name": "registrationTimestamp",
          "type": "uint256"
        }
      ],
      "stateMutability": "view",
      "type": "function",
      "constant": true
    },
    {
      "inputs": [
        {
          "internalType": "address",
          "name": "",
          "type": "address"
        }
      ],
      "name": "users",
      "outputs": [
        {
          "internalType": "address",
          "name": "userAddress",
          "type": "address"
        },
        {
          "internalType": "string",
          "name": "name",
          "type": "string"
        },
        {
          "internalType": "enum SmartContract.UserType",
          "name": "userType",
          "type": "uint8"
        },
        {
          "internalType": "string",
          "name": "entityDID",
          "type": "string"
        },
        {
          "internalType": "string",
          "name": "walletDID",
          "type": "string"
        },
        {
          "internalType": "bool",
          "name": "isRegistered",
          "type": "bool"
        },
        {
          "internalType": "uint256",
          "name": "registrationTimestamp",
          "type": "uint256"
        }
      ],
      "stateMutability": "view",
      "type": "function",
      "constant": true
    },
    {
      "inputs": [
        {
          "internalType": "string",
          "name": "",
          "type": "string"
        }
      ],
      "name": "vehicleInsurance",
      "outputs": [
        {
          "internalType": "address",
          "name": "insurer",
          "type": "address"
        },
        {
          "internalType": "address",
          "name": "vehicleOwner",
          "type": "address"
        },
        {
          "internalType": "string",
          "name": "vin",
          "type": "string"
        },
        {
          "internalType": "uint256",
          "name": "startDate",
          "type": "uint256"
        },
        {
          "internalType": "uint256",
          "name": "endDate",
          "type": "uint256"
        },
        {
          "internalType": "bool",
          "name": "isActive",
          "type": "bool"
        }
      ],
      "stateMutability": "view",
      "type": "function",
      "constant": true
    },
    {
      "inputs": [
        {
          "internalType": "string",
          "name": "",
          "type": "string"
        }
      ],
      "name": "vehicles",
      "outputs": [
        {
          "internalType": "string",
          "name": "vin",
          "type": "string"
        },
        {
          "internalType": "string",
          "name": "make",
          "type": "string"
        },
        {
          "internalType": "string",
          "name": "model",
          "type": "string"
        },
        {
          "internalType": "uint256",
          "name": "year",
          "type": "uint256"
        },
        {
          "internalType": "address",
          "name": "currentOwner",
          "type": "address"
        },
        {
          "internalType": "string",
          "name": "entityDID",
          "type": "string"
        },
        {
          "internalType": "string",
          "name": "walletDID",
          "type": "string"
        },
        {
          "internalType": "string",
          "name": "credentialDID",
          "type": "string"
        },
        {
          "internalType": "bool",
          "name": "isRegistered",
          "type": "bool"
        },
        {
          "internalType": "address",
          "name": "currentInsurer",
          "type": "address"
        }
      ],
      "stateMutability": "view",
      "type": "function",
      "constant": true
    },
    {
      "inputs": [
        {
          "internalType": "string",
          "name": "_name",
          "type": "string"
        },
        {
          "internalType": "enum SmartContract.UserType",
          "name": "_userType",
          "type": "uint8"
        },
        {
          "internalType": "string",
          "name": "_entityDID",
          "type": "string"
        },
        {
          "internalType": "string",
          "name": "_walletDID",
          "type": "string"
        }
      ],
      "name": "registerUser",
      "outputs": [],
      "stateMutability": "nonpayable",
      "type": "function"
    },
    {
      "inputs": [
        {
          "internalType": "string",
          "name": "_vin",
          "type": "string"
        },
        {
          "internalType": "address",
          "name": "_mechanic",
          "type": "address"
        }
      ],
      "name": "authorizeMechanic",
      "outputs": [],
      "stateMutability": "nonpayable",
      "type": "function"
    },
    {
      "inputs": [
        {
          "internalType": "string",
          "name": "_vin",
          "type": "string"
        },
        {
          "internalType": "string",
          "name": "_serviceDescription",
          "type": "string"
        },
        {
          "internalType": "bool",
          "name": "_isCritical",
          "type": "bool"
        }
      ],
      "name": "addMaintenanceRecord",
      "outputs": [],
      "stateMutability": "nonpayable",
      "type": "function"
    },
    {
      "inputs": [
        {
          "internalType": "string",
          "name": "_vin",
          "type": "string"
        },
        {
          "internalType": "uint256",
          "name": "_startDate",
          "type": "uint256"
        },
        {
          "internalType": "uint256",
          "name": "_endDate",
          "type": "uint256"
        }
      ],
      "name": "createInsurancePolicy",
      "outputs": [],
      "stateMutability": "nonpayable",
      "type": "function"
    },
    {
      "inputs": [
        {
          "internalType": "string",
          "name": "_vin",
          "type": "string"
        },
        {
          "internalType": "address",
          "name": "_newOwner",
          "type": "address"
        }
      ],
      "name": "transferVehicleOwnership",
      "outputs": [],
      "stateMutability": "nonpayable",
      "type": "function"
    },
    {
      "inputs": [
        {
          "internalType": "address",
          "name": "_source",
          "type": "address"
        },
        {
          "internalType": "address",
          "name": "_destination",
          "type": "address"
        },
        {
          "internalType": "string",
          "name": "_sourceIdentifier",
          "type": "string"
        },
        {
          "internalType": "string",
          "name": "_destinationIdentifier",
          "type": "string"
        },
        {
          "internalType": "string",
          "name": "_interactionType",
          "type": "string"
        },
        {
          "internalType": "bytes",
          "name": "_payload",
          "type": "bytes"
        }
      ],
      "name": "recordInteraction",
      "outputs": [],
      "stateMutability": "nonpayable",
      "type": "function"
    },
    {
      "inputs": [
        {
          "internalType": "string",
          "name": "_identifier",
          "type": "string"
        }
      ],
      "name": "getEntityInteractions",
      "outputs": [
        {
          "components": [
            {
              "internalType": "address",
              "name": "source",
              "type": "address"
            },
            {
              "internalType": "address",
              "name": "destination",
              "type": "address"
            },
            {
              "internalType": "string",
              "name": "sourceIdentifier",
              "type": "string"
            },
            {
              "internalType": "string",
              "name": "destinationIdentifier",
              "type": "string"
            },
            {
              "internalType": "string",
              "name": "interactionType",
              "type": "string"
            },
            {
              "internalType": "bytes",
              "name": "payload",
              "type": "bytes"
            },
            {
              "internalType": "uint256",
              "name": "timestamp",
              "type": "uint256"
            }
          ],
          "internalType": "struct SmartContract.Interaction[]",
          "name": "",
          "type": "tuple[]"
        }
      ],
      "stateMutability": "view",
      "type": "function",
      "constant": true
    },
    {
      "inputs": [
        {
          "internalType": "string",
          "name": "_identifier1",
          "type": "string"
        },
        {
          "internalType": "string",
          "name": "_identifier2",
          "type": "string"
        }
      ],
      "name": "getInteractionsBetweenEntities",
      "outputs": [
        {
          "components": [
            {
              "internalType": "address",
              "name": "source",
              "type": "address"
            },
            {
              "internalType": "address",
              "name": "destination",
              "type": "address"
            },
            {
              "internalType": "string",
              "name": "sourceIdentifier",
              "type": "string"
            },
            {
              "internalType": "string",
              "name": "destinationIdentifier",
              "type": "string"
            },
            {
              "internalType": "string",
              "name": "interactionType",
              "type": "string"
            },
            {
              "internalType": "bytes",
              "name": "payload",
              "type": "bytes"
            },
            {
              "internalType": "uint256",
              "name": "timestamp",
              "type": "uint256"
            }
          ],
          "internalType": "struct SmartContract.Interaction[]",
          "name": "",
          "type": "tuple[]"
        }
      ],
      "stateMutability": "view",
      "type": "function",
      "constant": true
    },
    {
      "inputs": [
        {
          "internalType": "string",
          "name": "_did",
          "type": "string"
        }
      ],
      "name": "isValidDID",
      "outputs": [
        {
          "internalType": "bool",
          "name": "",
          "type": "bool"
        }
      ],
      "stateMutability": "view",
      "type": "function",
      "constant": true
    },
    {
      "inputs": [
        {
          "internalType": "string",
          "name": "_credentialId",
          "type": "string"
        },
        {
          "internalType": "string",
          "name": "_issuerDid",
          "type": "string"
        },
        {
          "internalType": "string",
          "name": "_subjectDid",
          "type": "string"
        },
        {
          "internalType": "string",
          "name": "_credentialData",
          "type": "string"
        }
      ],
      "name": "storeCredential",
      "outputs": [],
      "stateMutability": "nonpayable",
      "type": "function"
    },
    {
      "inputs": [
        {
          "internalType": "string",
          "name": "_credentialId",
          "type": "string"
        }
      ],
      "name": "getCredential",
      "outputs": [
        {
          "internalType": "string",
          "name": "",
          "type": "string"
        }
      ],
      "stateMutability": "view",
      "type": "function",
      "constant": true
    },
    {
      "inputs": [],
      "name": "getRegisteredAddressesCount",
      "outputs": [
        {
          "internalType": "uint256",
          "name": "",
          "type": "uint256"
        }
      ],
      "stateMutability": "view",
      "type": "function",
      "constant": true
    },
    {
      "inputs": [],
      "name": "getRegisteredAddresses",
      "outputs": [
        {
          "internalType": "address[]",
          "name": "",
          "type": "address[]"
        }
      ],
      "stateMutability": "view",
      "type": "function",
      "constant": true
    },
    {
      "inputs": [
        {
          "internalType": "string",
          "name": "_vin",
          "type": "string"
        },
        {
          "internalType": "string",
          "name": "_ownerDID",
          "type": "string"
        },
        {
          "internalType": "string",
          "name": "_entityDID",
          "type": "string"
        },
        {
          "internalType": "uint256",
          "name": "_year",
          "type": "uint256"
        },
        {
          "internalType": "string",
          "name": "_make",
          "type": "string"
        },
        {
          "internalType": "string",
          "name": "_model",
          "type": "string"
        },
        {
          "internalType": "string",
          "name": "_walletDID",
          "type": "string"
        }
      ],
      "name": "registerVehicle",
      "outputs": [],
      "stateMutability": "nonpayable",
      "type": "function"
    },
    {
      "inputs": [
        {
          "internalType": "string",
          "name": "_entityDID",
          "type": "string"
        }
      ],
      "name": "getUserAddressByDID",
      "outputs": [
        {
          "internalType": "address",
          "name": "",
          "type": "address"
        }
      ],
      "stateMutability": "view",
      "type": "function",
      "constant": true
    },
    {
      "inputs": [
        {
          "internalType": "string",
          "name": "_did",
          "type": "string"
        },
        {
          "internalType": "string",
          "name": "_document",
          "type": "string"
        }
      ],
      "name": "storeDIDDocument",
      "outputs": [],
      "stateMutability": "nonpayable",
      "type": "function"
    },
    {
      "inputs": [
        {
          "internalType": "string",
          "name": "_did",
          "type": "string"
        }
      ],
      "name": "getDIDDocument",
      "outputs": [
        {
          "internalType": "string",
          "name": "document",
          "type": "string"
        },
        {
          "internalType": "uint256",
          "name": "timestamp",
          "type": "uint256"
        },
        {
          "internalType": "bool",
          "name": "isActive",
          "type": "bool"
        },
        {
          "internalType": "address",
          "name": "controller",
          "type": "address"
        }
      ],
      "stateMutability": "view",
      "type": "function",
      "constant": true
    },
    {
      "inputs": [
        {
          "internalType": "string",
          "name": "_did",
          "type": "string"
        }
      ],
      "name": "isUserRegistered",
      "outputs": [
        {
          "internalType": "bool",
          "name": "",
          "type": "bool"
        }
      ],
      "stateMutability": "view",
      "type": "function",
      "constant": true
    },
    {
      "inputs": [
        {
          "internalType": "string",
          "name": "_ownerDID",
          "type": "string"
        }
      ],
      "name": "getUserVehicles",
      "outputs": [
        {
          "components": [
            {
              "internalType": "string",
              "name": "vin",
              "type": "string"
            },
            {
              "internalType": "string",
              "name": "make",
              "type": "string"
            },
            {
              "internalType": "string",
              "name": "model",
              "type": "string"
            },
            {
              "internalType": "uint256",
              "name": "year",
              "type": "uint256"
            },
            {
              "internalType": "address",
              "name": "currentOwner",
              "type": "address"
            },
            {
              "internalType": "address[]",
              "name": "previousOwners",
              "type": "address[]"
            },
            {
              "internalType": "string",
              "name": "entityDID",
              "type": "string"
            },
            {
              "internalType": "string",
              "name": "walletDID",
              "type": "string"
            },
            {
              "internalType": "string",
              "name": "credentialDID",
              "type": "string"
            },
            {
              "internalType": "bool",
              "name": "isRegistered",
              "type": "bool"
            },
            {
              "internalType": "address",
              "name": "currentInsurer",
              "type": "address"
            },
            {
              "internalType": "address[]",
              "name": "maintenanceProviders",
              "type": "address[]"
            }
          ],
          "internalType": "struct SmartContract.Vehicle[]",
          "name": "",
          "type": "tuple[]"
        }
      ],
      "stateMutability": "view",
      "type": "function",
      "constant": true
    }
  ],
  "bytecode": "0x608060405234801561001057600080fd5b506157ac80620000216000396000f3fe608060405234801561001057600080fd5b50600436106101e55760003560e01c8063551ee09d1161010f578063a94df14b116100a2578063e09a81c611610071578063e09a81c6146104cd578063e4114498146104e0578063eca5b0d0146104f3578063ede2ab3514610506576101e5565b8063a94df14b1461046f578063d091187f14610482578063d27fa72a14610495578063dae2bb94146104ba576101e5565b80638c3311b3116100de5780638c3311b3146103fa578063976de5c51461040d578063a87430ba14610436578063a8cc77841461045c576101e5565b8063551ee09d146103915780636ba1f4a4146103a4578063726a3be9146103c4578063784afc4e146103d7576101e5565b80631ed950711161018757806334cf05d01161015657806334cf05d014610338578063427e0ebb1461034b5780634372a7981461035e5780634925a94c1461037e576101e5565b80631ed95071146102c6578063227ef061146102ec57806324c483a5146103015780632d1bad5014610325576101e5565b80630faa965b116101c35780630faa965b1461024e5780631b37372c1461026e5780631ca45b7d146102835780631ea09ea2146102a3576101e5565b806306a63d1e146101ea5780630ba460ff146102135780630cb0064314610239575b600080fd5b6101fd6101f8366004614688565b610519565b60405161020a919061506b565b60405180910390f35b610226610221366004614a84565b610539565b60405161020a9796959493929190614c13565b61024c61024736600461485c565b6107b5565b005b61026161025c366004614a84565b6109b4565b60405161020a9190615076565b610276610a60565b60405161020a91906156a5565b610296610291366004614688565b610a66565b60405161020a9190614f08565b6102b66102b136600461470d565b6117ca565b60405161020a9493929190614d92565b6102d96102d43660046145a0565b6118c3565b60405161020a9796959493929190614d48565b6102f4611b2c565b60405161020a9190614dce565b61031461030f366004614688565b611b8e565b60405161020a959493929190615160565b6101fd6103333660046146c2565b611ce4565b6101fd610346366004614688565b611d14565b61024c6103593660046146c2565b611d34565b61037161036c366004614688565b611ee7565b60405161020a9190614e1b565b61024c61038c366004614a39565b612372565b61024c61039f3660046145c1565b612588565b6103b76103b2366004614688565b61284b565b60405161020a9190614bff565b61024c6103d2366004614761565b612871565b6103ea6103e5366004614688565b612c05565b60405161020a94939291906151ac565b61024c6104083660046148d4565b612e13565b61042061041b366004614688565b612f54565b60405161020a9a999897969594939291906150ab565b6104496104443660046145a0565b6132f7565b60405161020a9796959493929190614cda565b6101fd61046a366004614688565b6133c0565b61024c61047d3660046147fc565b6133ec565b610261610490366004614688565b61363a565b6104a86104a3366004614688565b613734565b60405161020a96959493929190614c8e565b6103716104c83660046147fc565b613812565b6103b76104db366004614688565b613dad565b6101fd6104ee366004614688565b613dfe565b61024c610501366004614941565b613e10565b61024c6105143660046146c2565b61421b565b805160208183018101805160078252928201919093012091525460ff1681565b600a818154811061054957600080fd5b60009182526020909120600790910201805460018201546002830180546001600160a01b039384169550929091169291610582906156de565b80601f01602080910402602001604051908101604052809291908181526020018280546105ae906156de565b80156105fb5780601f106105d0576101008083540402835291602001916105fb565b820191906000526020600020905b8154815290600101906020018083116105de57829003601f168201915b505050505090806003018054610610906156de565b80601f016020809104026020016040519081016040528092919081815260200182805461063c906156de565b80156106895780601f1061065e57610100808354040283529160200191610689565b820191906000526020600020905b81548152906001019060200180831161066c57829003601f168201915b50505050509080600401805461069e906156de565b80601f01602080910402602001604051908101604052809291908181526020018280546106ca906156de565b80156107175780601f106106ec57610100808354040283529160200191610717565b820191906000526020600020905b8154815290600101906020018083116106fa57829003601f168201915b50505050509080600501805461072c906156de565b80601f0160208091040260200160405190810160405280929190818152602001828054610758906156de565b80156107a55780601f1061077a576101008083540402835291602001916107a5565b820191906000526020600020905b81548152906001019060200180831161078857829003601f168201915b5050505050908060060154905087565b60013360009081526020819052604090206002015460ff1660058111156107ec57634e487b7160e01b600052602160045260246000fd5b146108125760405162461bcd60e51b815260040161080990615318565b60405180910390fd5b600b836040516108229190614be3565b9081526040805160209281900383019020336000908152925290205460ff1661085d5760405162461bcd60e51b815260040161080990615404565b6040805160808101825233815260208101849052428183015282151560608201529051600c9061088e908690614be3565b908152604080516020928190038301902033600090815290835290812080546001808201835591835291839020845160049093020180546001600160a01b0319166001600160a01b0390931692909217825583830151805185946108f6938501920190614357565b5060408281015160028301556060909201516003909101805460ff19169115159190911790555160019061092b908690614be3565b9081526040519081900360209081018220600a01805460018101825560009182529190200180546001600160a01b031916339081179091559061096f908690614be3565b60405180910390207f91a5f1d06abab406e030acdff984b197b8f997413911abf026afa6bf1533cba7856040516109a69190615076565b60405180910390a350505050565b600981815481106109c457600080fd5b9060005260206000200160009150905080546109df906156de565b80601f0160208091040260200160405190810160405280929190818152602001828054610a0b906156de565b8015610a585780601f10610a2d57610100808354040283529160200191610a58565b820191906000526020600020905b815481529060010190602001808311610a3b57829003601f168201915b505050505081565b60085490565b60606000805b6009548110156110ca57600060098281548110610a9957634e487b7160e01b600052603260045260246000fd5b906000526020600020018054610aae906156de565b80601f0160208091040260200160405190810160405280929190818152602001828054610ada906156de565b8015610b275780601f10610afc57610100808354040283529160200191610b27565b820191906000526020600020905b815481529060010190602001808311610b0a57829003601f168201915b505050505090506000600182604051610b409190614be3565b908152602001604051809103902060405180610180016040529081600082018054610b6a906156de565b80601f0160208091040260200160405190810160405280929190818152602001828054610b96906156de565b8015610be35780601f10610bb857610100808354040283529160200191610be3565b820191906000526020600020905b815481529060010190602001808311610bc657829003601f168201915b50505050508152602001600182018054610bfc906156de565b80601f0160208091040260200160405190810160405280929190818152602001828054610c28906156de565b8015610c755780601f10610c4a57610100808354040283529160200191610c75565b820191906000526020600020905b815481529060010190602001808311610c5857829003601f168201915b50505050508152602001600282018054610c8e906156de565b80601f0160208091040260200160405190810160405280929190818152602001828054610cba906156de565b8015610d075780601f10610cdc57610100808354040283529160200191610d07565b820191906000526020600020905b815481529060010190602001808311610cea57829003601f168201915b50505050508152602001600382015481526020016004820160009054906101000a90046001600160a01b03166001600160a01b03166001600160a01b0316815260200160058201805480602002602001604051908101604052809291908181526020018280548015610da257602002820191906000526020600020905b81546001600160a01b03168152600190910190602001808311610d84575b50505050508152602001600682018054610dbb906156de565b80601f0160208091040260200160405190810160405280929190818152602001828054610de7906156de565b8015610e345780601f10610e0957610100808354040283529160200191610e34565b820191906000526020600020905b815481529060010190602001808311610e1757829003601f168201915b50505050508152602001600782018054610e4d906156de565b80601f0160208091040260200160405190810160405280929190818152602001828054610e79906156de565b8015610ec65780601f10610e9b57610100808354040283529160200191610ec6565b820191906000526020600020905b815481529060010190602001808311610ea957829003601f168201915b50505050508152602001600882018054610edf906156de565b80601f0160208091040260200160405190810160405280929190818152602001828054610f0b906156de565b8015610f585780601f10610f2d57610100808354040283529160200191610f58565b820191906000526020600020905b815481529060010190602001808311610f3b57829003601f168201915b5050509183525050600982015460ff811615156020808401919091526101009091046001600160a01b0316604080840191909152600a840180548251818502810185019093528083526060909401939192909190830182828015610fe557602002820191906000526020600020905b81546001600160a01b03168152600190910190602001808311610fc7575b505050505081525050905060005b6008548110156110b45760006008828154811061102057634e487b7160e01b600052603260045260246000fd5b60009182526020808320909101548a518b8301206001600160a01b039091168084529183905260409283902092519193509161106191600390910190614bd7565b604051809103902014156110a157806001600160a01b031683608001516001600160a01b0316141561109b578561109781615719565b9650505b506110b4565b50806110ac81615719565b915050610ff3565b50505080806110c290615719565b915050610a6c565b506000816001600160401b038111156110f357634e487b7160e01b600052604160045260246000fd5b60405190808252806020026020018201604052801561112c57816020015b6111196143db565b8152602001906001900390816111115790505b5090506000805b6009548110156117be5760006009828154811061116057634e487b7160e01b600052603260045260246000fd5b906000526020600020018054611175906156de565b80601f01602080910402602001604051908101604052809291908181526020018280546111a1906156de565b80156111ee5780601f106111c3576101008083540402835291602001916111ee565b820191906000526020600020905b8154815290600101906020018083116111d157829003601f168201915b5050505050905060006001826040516112079190614be3565b908152602001604051809103902060405180610180016040529081600082018054611231906156de565b80601f016020809104026020016040519081016040528092919081815260200182805461125d906156de565b80156112aa5780601f1061127f576101008083540402835291602001916112aa565b820191906000526020600020905b81548152906001019060200180831161128d57829003601f168201915b505050505081526020016001820180546112c3906156de565b80601f01602080910402602001604051908101604052809291908181526020018280546112ef906156de565b801561133c5780601f106113115761010080835404028352916020019161133c565b820191906000526020600020905b81548152906001019060200180831161131f57829003601f168201915b50505050508152602001600282018054611355906156de565b80601f0160208091040260200160405190810160405280929190818152602001828054611381906156de565b80156113ce5780601f106113a3576101008083540402835291602001916113ce565b820191906000526020600020905b8154815290600101906020018083116113b157829003601f168201915b50505050508152602001600382015481526020016004820160009054906101000a90046001600160a01b03166001600160a01b03166001600160a01b031681526020016005820180548060200260200160405190810160405280929190818152602001828054801561146957602002820191906000526020600020905b81546001600160a01b0316815260019091019060200180831161144b575b50505050508152602001600682018054611482906156de565b80601f01602080910402602001604051908101604052809291908181526020018280546114ae906156de565b80156114fb5780601f106114d0576101008083540402835291602001916114fb565b820191906000526020600020905b8154815290600101906020018083116114de57829003601f168201915b50505050508152602001600782018054611514906156de565b80601f0160208091040260200160405190810160405280929190818152602001828054611540906156de565b801561158d5780601f106115625761010080835404028352916020019161158d565b820191906000526020600020905b81548152906001019060200180831161157057829003601f168201915b505050505081526020016008820180546115a6906156de565b80601f01602080910402602001604051908101604052809291908181526020018280546115d2906156de565b801561161f5780601f106115f45761010080835404028352916020019161161f565b820191906000526020600020905b81548152906001019060200180831161160257829003601f168201915b5050509183525050600982015460ff811615156020808401919091526101009091046001600160a01b0316604080840191909152600a8401805482518185028101850190935280835260609094019391929091908301828280156116ac57602002820191906000526020600020905b81546001600160a01b0316815260019091019060200180831161168e575b505050505081525050905060005b6008548110156117a8576000600882815481106116e757634e487b7160e01b600052603260045260246000fd5b60009182526020808320909101548c518d8301206001600160a01b039091168084529183905260409283902092519193509161172891600390910190614bd7565b6040518091039020141561179557806001600160a01b031683608001516001600160a01b0316141561178f578287878151811061177557634e487b7160e01b600052603260045260246000fd5b6020026020010181905250858061178b90615719565b9650505b506117a8565b50806117a081615719565b9150506116ba565b50505080806117b690615719565b915050611133565b5090925050505b919050565b8251602081850181018051600c825292820182870120929052526000828152604090208054829081106117fc57600080fd5b6000918252602090912060049091020180546001820180546001600160a01b039092169550919350909150611830906156de565b80601f016020809104026020016040519081016040528092919081815260200182805461185c906156de565b80156118a95780601f1061187e576101008083540402835291602001916118a9565b820191906000526020600020905b81548152906001019060200180831161188c57829003601f168201915b50505050600283015460039093015491929160ff16905084565b600360205260009081526040902080546001820180546001600160a01b0390921692916118ef906156de565b80601f016020809104026020016040519081016040528092919081815260200182805461191b906156de565b80156119685780601f1061193d57610100808354040283529160200191611968565b820191906000526020600020905b81548152906001019060200180831161194b57829003601f168201915b50505050509080600201805461197d906156de565b80601f01602080910402602001604051908101604052809291908181526020018280546119a9906156de565b80156119f65780601f106119cb576101008083540402835291602001916119f6565b820191906000526020600020905b8154815290600101906020018083116119d957829003601f168201915b505050505090806003018054611a0b906156de565b80601f0160208091040260200160405190810160405280929190818152602001828054611a37906156de565b8015611a845780601f10611a5957610100808354040283529160200191611a84565b820191906000526020600020905b815481529060010190602001808311611a6757829003601f168201915b505050505090806004018054611a99906156de565b80601f0160208091040260200160405190810160405280929190818152602001828054611ac5906156de565b8015611b125780601f10611ae757610100808354040283529160200191611b12565b820191906000526020600020905b815481529060010190602001808311611af557829003601f168201915b505050506005830154600690930154919260ff1691905087565b60606008805480602002602001604051908101604052809291908181526020018280548015611b8457602002820191906000526020600020905b81546001600160a01b03168152600190910190602001808311611b66575b5050505050905090565b8051602081830181018051600582529282019190930120915280548190611bb4906156de565b80601f0160208091040260200160405190810160405280929190818152602001828054611be0906156de565b8015611c2d5780601f10611c0257610100808354040283529160200191611c2d565b820191906000526020600020905b815481529060010190602001808311611c1057829003601f168201915b505050505090806001018054611c42906156de565b80601f0160208091040260200160405190810160405280929190818152602001828054611c6e906156de565b8015611cbb5780601f10611c9057610100808354040283529160200191611cbb565b820191906000526020600020905b815481529060010190602001808311611c9e57829003601f168201915b50505050600283015460039093015491929160ff8116915061010090046001600160a01b031685565b8151602081840181018051600b825292820194820194909420919093529091526000908152604090205460ff1681565b805160208183018101805160048252928201919093012091525460ff1681565b81336001600160a01b0316600182604051611d4f9190614be3565b908152604051908190036020019020600401546001600160a01b031614611d885760405162461bcd60e51b81526004016108099061551a565b6001600160a01b03821660009081526020819052604090206005015460ff16611dc35760405162461bcd60e51b81526004016108099061536e565b6000600184604051611dd59190614be3565b90815260405190819003602090810182206004810180546001600160a01b038881166001600160a01b03198084168217909455600585018054600181018255600091825296902090950180549093169094179091559093501690600290611e3d908790614be3565b9081526040519081900360200190206005015460ff1615611e8e576000600286604051611e6a9190614be3565b908152604051908190036020019020600501805491151560ff199092169190911790555b836001600160a01b0316816001600160a01b031686604051611eb09190614be3565b604051908190038120907f17322cbab3839b9fa4bd15313c58902570e07911c182ebfae698d7396cd44eae90600090a45050505050565b600a546060906000906001600160401b03811115611f1557634e487b7160e01b600052604160045260246000fd5b604051908082528060200260200182016040528015611f4e57816020015b611f3b614450565b815260200190600190039081611f335790505b5090506000805b600a548110156123695784604051602001611f709190614be3565b60405160208183030381529060405280519060200120600a8281548110611fa757634e487b7160e01b600052603260045260246000fd5b9060005260206000209060070201600201604051602001611fc89190614bd7565b604051602081830303815290604052805190602001201480612066575084604051602001611ff69190614be3565b60405160208183030381529060405280519060200120600a828154811061202d57634e487b7160e01b600052603260045260246000fd5b906000526020600020906007020160030160405160200161204e9190614bd7565b60405160208183030381529060405280519060200120145b1561235757600a818154811061208c57634e487b7160e01b600052603260045260246000fd5b60009182526020918290206040805160e081018252600790930290910180546001600160a01b03908116845260018201541693830193909352600283018054929392918401916120db906156de565b80601f0160208091040260200160405190810160405280929190818152602001828054612107906156de565b80156121545780601f1061212957610100808354040283529160200191612154565b820191906000526020600020905b81548152906001019060200180831161213757829003601f168201915b5050505050815260200160038201805461216d906156de565b80601f0160208091040260200160405190810160405280929190818152602001828054612199906156de565b80156121e65780601f106121bb576101008083540402835291602001916121e6565b820191906000526020600020905b8154815290600101906020018083116121c957829003601f168201915b505050505081526020016004820180546121ff906156de565b80601f016020809104026020016040519081016040528092919081815260200182805461222b906156de565b80156122785780601f1061224d57610100808354040283529160200191612278565b820191906000526020600020905b81548152906001019060200180831161225b57829003601f168201915b50505050508152602001600582018054612291906156de565b80601f01602080910402602001604051908101604052809291908181526020018280546122bd906156de565b801561230a5780601f106122df5761010080835404028352916020019161230a565b820191906000526020600020905b8154815290600101906020018083116122ed57829003601f168201915b5050505050815260200160068201548152505083838151811061233d57634e487b7160e01b600052603260045260246000fd5b6020026020010181905250818061235390615719565b9250505b8061236181615719565b915050611f55565b50815292915050565b60023360009081526020819052604090206002015460ff1660058111156123a957634e487b7160e01b600052602160045260246000fd5b146123c65760405162461bcd60e51b8152600401610809906155dc565b60006001846040516123d89190614be3565b908152604051908190036020019020600981015490915060ff1661240e5760405162461bcd60e51b8152600401610809906154ea565b60048101546001600160a01b03166124385760405162461bcd60e51b81526004016108099061564a565b6040805160c08101825233815260048301546001600160a01b031660208201528082018690526060810185905260808101849052600160a08201529051600290612483908790614be3565b90815260408051918290036020908101909220835181546001600160a01b039182166001600160a01b03199182161783558585015160018401805491909316911617905590830151805191926124e192600285019290910190614357565b5060608201516003820155608082015160048083019190915560a0909201516005909101805460ff1916911515919091179055600982018054610100600160a81b0319166101003390810291909117909155908201546040516001600160a01b039091169190612552908790614be3565b604051908190038120907f815742f79020b0e83251389c298e9ef9324eb3e8ba8cc2630f01806a33dd2d6c90600090a450505050565b6001600160a01b03861660009081526020819052604090206005015460ff16806125d457506001846040516125bd9190614be3565b9081526040519081900360200190206009015460ff165b6125f05760405162461bcd60e51b815260040161080990615613565b6001600160a01b03851660009081526020819052604090206005015460ff168061263c57506001836040516126259190614be3565b9081526040519081900360200190206009015460ff165b8061266257506001600160a01b03851660009081526003602052604090206005015460ff165b61267e5760405162461bcd60e51b8152600401610809906154a9565b6040805160e0810182526001600160a01b0380891682528781166020808401918252938301888152606084018890526080840187905260a084018690524260c0850152600a8054600181018255600091909152845160079091027fc65a7bb8d6351c1cf70c95a316cc6a92839c986682d98bc35f958f4883f9d2a8810180549286166001600160a01b031993841617815593517fc65a7bb8d6351c1cf70c95a316cc6a92839c986682d98bc35f958f4883f9d2a9820180549190961692169190911790935551805193948594929361277e937fc65a7bb8d6351c1cf70c95a316cc6a92839c986682d98bc35f958f4883f9d2aa9091019290910190614357565b506060820151805161279a916003840191602090910190614357565b50608082015180516127b6916004840191602090910190614357565b5060a082015180516127d2916005840191602090910190614357565b5060c082015181600601555050836040516127ed9190614be3565b6040518091039020856040516128039190614be3565b60405180910390207f9105a2bd976a227e0aa31dbf6e832e6a90c3700bf26f7e406d1671c9ad55767f8560405161283a9190615076565b60405180910390a350505050505050565b80516020818301810180516006825292820191909301209152546001600160a01b031681565b60008451116128925760405162461bcd60e51b8152600401610809906151e4565b60008251116128b35760405162461bcd60e51b815260040161080990615288565b60008151116128d45760405162461bcd60e51b815260040161080990615545565b3360009081526020819052604090206005015460ff16156129075760405162461bcd60e51b815260040161080990615472565b6040518060e00160405280336001600160a01b0316815260200185815260200184600581111561294757634e487b7160e01b600052602160045260246000fd5b8152602080820185905260408083018590526001606084018190524260809094019390935233600090815280835220835181546001600160a01b0319166001600160a01b0390911617815583820151805191936129aa9390850192910190614357565b50604082015160028201805460ff191660018360058111156129dc57634e487b7160e01b600052602160045260246000fd5b0217905550606082015180516129fc916003840191602090910190614357565b5060808201518051612a18916004840191602090910190614357565b5060a082015160058201805460ff191691151591909117905560c090910151600691820155600880546001810182556000919091527ff3f7a9fe364faab93b216da50a3214154f22a0a2b415b23a84c8169e8b636ee3018054336001600160a01b03199091168117909155604051909190612a94908590614be3565b908152602001604051809103902060006101000a8154816001600160a01b0302191690836001600160a01b0316021790555033600682604051612ad79190614be3565b908152602001604051809103902060006101000a8154816001600160a01b0302191690836001600160a01b031602179055506001600783604051612b1b9190614be3565b908152604051908190036020018120805492151560ff1990931692909217909155600190600790612b4d908490614be3565b908152604051908190036020018120805492151560ff199093169290921790915533907fc2e5d5da58bd71d1a2d14cdef02a4256d971b728088f8190d067ccfbae3bd73e90612b9f9087908790615089565b60405180910390a281604051612bb59190614be3565b6040519081900381209060008051602061575783398151915290600090a280604051612be19190614be3565b6040519081900381209060008051602061575783398151915290600090a250505050565b6060600080600080855111612c2c5760405162461bcd60e51b815260040161080990615678565b600485604051612c3c9190614be3565b9081526040519081900360200190205460ff16612c6b5760405162461bcd60e51b81526004016108099061525c565b6000600586604051612c7d9190614be3565b90815260200160405180910390206040518060a0016040529081600082018054612ca6906156de565b80601f0160208091040260200160405190810160405280929190818152602001828054612cd2906156de565b8015612d1f5780601f10612cf457610100808354040283529160200191612d1f565b820191906000526020600020905b815481529060010190602001808311612d0257829003601f168201915b50505050508152602001600182018054612d38906156de565b80601f0160208091040260200160405190810160405280929190818152602001828054612d64906156de565b8015612db15780601f10612d8657610100808354040283529160200191612db1565b820191906000526020600020905b815481529060010190602001808311612d9457829003601f168201915b5050509183525050600282015460208083019190915260039092015460ff811615156040808401919091526101009091046001600160a01b03166060928301529183015191830151908301516080909301519199909850919650945092505050565b612e1c83613dfe565b612e385760405162461bcd60e51b8152600401610809906152bf565b612e4182613dfe565b612e5d5760405162461bcd60e51b8152600401610809906152eb565b600d84604051612e6d9190614be3565b90815260200160405180910390208054612e86906156de565b159050612ea55760405162461bcd60e51b81526004016108099061543b565b80600d85604051612eb69190614be3565b90815260200160405180910390209080519060200190612ed7929190614357565b5033600e85604051612ee99190614be3565b908152602001604051809103902060006101000a8154816001600160a01b0302191690836001600160a01b0316021790555081600f85604051612f2c9190614be3565b90815260200160405180910390209080519060200190612f4d929190614357565b5050505050565b8051602081830181018051600182529282019190930120915280548190612f7a906156de565b80601f0160208091040260200160405190810160405280929190818152602001828054612fa6906156de565b8015612ff35780601f10612fc857610100808354040283529160200191612ff3565b820191906000526020600020905b815481529060010190602001808311612fd657829003601f168201915b505050505090806001018054613008906156de565b80601f0160208091040260200160405190810160405280929190818152602001828054613034906156de565b80156130815780601f1061305657610100808354040283529160200191613081565b820191906000526020600020905b81548152906001019060200180831161306457829003601f168201915b505050505090806002018054613096906156de565b80601f01602080910402602001604051908101604052809291908181526020018280546130c2906156de565b801561310f5780601f106130e45761010080835404028352916020019161310f565b820191906000526020600020905b8154815290600101906020018083116130f257829003601f168201915b5050505060038301546004840154600685018054949592946001600160a01b0390921693509061313e906156de565b80601f016020809104026020016040519081016040528092919081815260200182805461316a906156de565b80156131b75780601f1061318c576101008083540402835291602001916131b7565b820191906000526020600020905b81548152906001019060200180831161319a57829003601f168201915b5050505050908060070180546131cc906156de565b80601f01602080910402602001604051908101604052809291908181526020018280546131f8906156de565b80156132455780601f1061321a57610100808354040283529160200191613245565b820191906000526020600020905b81548152906001019060200180831161322857829003601f168201915b50505050509080600801805461325a906156de565b80601f0160208091040260200160405190810160405280929190818152602001828054613286906156de565b80156132d35780601f106132a8576101008083540402835291602001916132d3565b820191906000526020600020905b8154815290600101906020018083116132b657829003601f168201915b5050506009909301549192505060ff8116906001600160a01b03610100909104168a565b600060208190529081526040902080546001820180546001600160a01b039092169291613323906156de565b80601f016020809104026020016040519081016040528092919081815260200182805461334f906156de565b801561339c5780601f106133715761010080835404028352916020019161339c565b820191906000526020600020905b81548152906001019060200180831161337f57829003601f168201915b5050506002840154600385018054949560ff909216949193509150611a0b906156de565b60006007826040516133d29190614be3565b9081526040519081900360200190205460ff169050919050565b600082511161340d5760405162461bcd60e51b815260040161080990615678565b600081511161342e5760405162461bcd60e51b8152600401610809906155a5565b60006001600160a01b03166005836040516134499190614be3565b908152604051908190036020019020600301546001600160a01b0361010090910416146134c957336001600160a01b031660058360405161348a9190614be3565b908152604051908190036020019020600301546001600160a01b0361010090910416146134c95760405162461bcd60e51b815260040161080990615212565b6040805160a0810182528381526020810183905242818301526001606082015233608082015290516005906134ff908590614be3565b90815260200160405180910390206000820151816000019080519060200190613529929190614357565b5060208281015180516135429260018501920190614357565b5060408281015160028301556060830151600390920180546080909401516001600160a01b031661010002610100600160a81b031993151560ff1990951694909417929092169290921790555160049061359d908490614be3565b9081526040519081900360200190205460ff166135e75760016004836040516135c69190614be3565b908152604051908190036020019020805491151560ff199092169190911790555b60405133906135f7908490614be3565b60405180910390207f493887cf58389a1529fcafb9195d01a85c2a9a985ae5b155cbbb53c3875f298e4260405161362e91906156a5565b60405180910390a35050565b60606000600d8360405161364e9190614be3565b90815260200160405180910390208054613667906156de565b9050116136865760405162461bcd60e51b815260040161080990615340565b600d826040516136969190614be3565b908152602001604051809103902080546136af906156de565b80601f01602080910402602001604051908101604052809291908181526020018280546136db906156de565b80156137285780601f106136fd57610100808354040283529160200191613728565b820191906000526020600020905b81548152906001019060200180831161370b57829003601f168201915b50505050509050919050565b8051602081830181018051600280835293830192909401919091209290528154600183015491830180546001600160a01b03928316949290931692613778906156de565b80601f01602080910402602001604051908101604052809291908181526020018280546137a4906156de565b80156137f15780601f106137c6576101008083540402835291602001916137f1565b820191906000526020600020905b8154815290600101906020018083116137d457829003601f168201915b50505050600383015460048401546005909401549293909290915060ff1686565b600a546060906000906001600160401b0381111561384057634e487b7160e01b600052604160045260246000fd5b60405190808252806020026020018201604052801561387957816020015b613866614450565b81526020019060019003908161385e5790505b5090506000805b600a54811015613da3578560405160200161389b9190614be3565b60405160208183030381529060405280519060200120600a82815481106138d257634e487b7160e01b600052603260045260246000fd5b90600052602060002090600702016002016040516020016138f39190614bd7565b604051602081830303815290604052805190602001201480156139925750846040516020016139229190614be3565b60405160208183030381529060405280519060200120600a828154811061395957634e487b7160e01b600052603260045260246000fd5b906000526020600020906007020160030160405160200161397a9190614bd7565b60405160208183030381529060405280519060200120145b80613aa05750846040516020016139a99190614be3565b60405160208183030381529060405280519060200120600a82815481106139e057634e487b7160e01b600052603260045260246000fd5b9060005260206000209060070201600201604051602001613a019190614bd7565b60405160208183030381529060405280519060200120148015613aa0575085604051602001613a309190614be3565b60405160208183030381529060405280519060200120600a8281548110613a6757634e487b7160e01b600052603260045260246000fd5b9060005260206000209060070201600301604051602001613a889190614bd7565b60405160208183030381529060405280519060200120145b15613d9157600a8181548110613ac657634e487b7160e01b600052603260045260246000fd5b60009182526020918290206040805160e081018252600790930290910180546001600160a01b0390811684526001820154169383019390935260028301805492939291840191613b15906156de565b80601f0160208091040260200160405190810160405280929190818152602001828054613b41906156de565b8015613b8e5780601f10613b6357610100808354040283529160200191613b8e565b820191906000526020600020905b815481529060010190602001808311613b7157829003601f168201915b50505050508152602001600382018054613ba7906156de565b80601f0160208091040260200160405190810160405280929190818152602001828054613bd3906156de565b8015613c205780601f10613bf557610100808354040283529160200191613c20565b820191906000526020600020905b815481529060010190602001808311613c0357829003601f168201915b50505050508152602001600482018054613c39906156de565b80601f0160208091040260200160405190810160405280929190818152602001828054613c65906156de565b8015613cb25780601f10613c8757610100808354040283529160200191613cb2565b820191906000526020600020905b815481529060010190602001808311613c9557829003601f168201915b50505050508152602001600582018054613ccb906156de565b80601f0160208091040260200160405190810160405280929190818152602001828054613cf7906156de565b8015613d445780601f10613d1957610100808354040283529160200191613d44565b820191906000526020600020905b815481529060010190602001808311613d2757829003601f168201915b50505050508152602001600682015481525050838381518110613d7757634e487b7160e01b600052603260045260246000fd5b60200260200101819052508180613d8d90615719565b9250505b80613d9b81615719565b915050613880565b5081529392505050565b600080600683604051613dc09190614be3565b908152604051908190036020019020546001600160a01b0316905080613df85760405162461bcd60e51b8152600401610809906153dc565b92915050565b60006004826040516133d29190614be3565b600080805b600854811015613eaf57600060088281548110613e4257634e487b7160e01b600052603260045260246000fd5b60009182526020808320909101548c518d8301206001600160a01b0390911680845291839052604092839020925191935091613e8391600390910190614bd7565b60405180910390201415613e9c57925060019150613eaf565b5080613ea781615719565b915050613e15565b5080613ecd5760405162461bcd60e51b81526004016108099061557c565b6040805160008082526020820190925290506040518061018001604052808b8152602001878152602001868152602001888152602001846001600160a01b0316815260200182815260200189815260200185815260200160405180602001604052806000815250815260200160011515815260200160006001600160a01b031681526020018281525060018b604051613f669190614be3565b90815260200160405180910390206000820151816000019080519060200190613f90929190614357565b506020828101518051613fa99260018501920190614357565b5060408201518051613fc5916002840191602090910190614357565b506060820151600382015560808201516004820180546001600160a01b0319166001600160a01b0390921691909117905560a0820151805161401191600584019160209091019061449f565b5060c0820151805161402d916006840191602090910190614357565b5060e08201518051614049916007840191602090910190614357565b506101008201518051614066916008840191602090910190614357565b506101208201516009820180546101408501516001600160a01b031661010002610100600160a81b031993151560ff19909216919091179290921691909117905561016082015180516140c391600a84019160209091019061449f565b5050600980546001810182556000919091528b5161410b92507f6e1540171b6c0c960b71a7020d9f60077f6af931a8bbf590da0223dacf75c7af9091019060208d0190614357565b50600160048960405161411e9190614be3565b908152604051908190036020018120805492151560ff1990931692909217909155600190600490614150908790614be3565b908152604051908190036020018120805492151560ff19909316929092179091556001600160a01b03841690614187908c90614be3565b604051908190038120907f0cfba914b5106da2fbba725502188ab817f680c8fe51c318c8bf6896a59f7fbd90600090a3876040516141c59190614be3565b6040519081900381209060008051602061575783398151915290600090a2836040516141f19190614be3565b6040519081900381209060008051602061575783398151915290600090a250505050505050505050565b81336001600160a01b03166001826040516142369190614be3565b908152604051908190036020019020600401546001600160a01b03161461426f5760405162461bcd60e51b81526004016108099061551a565b60016001600160a01b03831660009081526020819052604090206002015460ff1660058111156142af57634e487b7160e01b600052602160045260246000fd5b146142cc5760405162461bcd60e51b8152600401610809906153a5565b6001600b846040516142de9190614be3565b90815260408051602092819003830181206001600160a01b03871660008181529190945291909120805460ff19169315159390931790925590614322908590614be3565b604051908190038120907f1d1354d420e32e0202a90c7bbc9e4cd0c34f4cef0852c7cf5e762402ab36e45090600090a3505050565b828054614363906156de565b90600052602060002090601f01602090048101928261438557600085556143cb565b82601f1061439e57805160ff19168380011785556143cb565b828001600101855582156143cb579182015b828111156143cb5782518255916020019190600101906143b0565b506143d79291506144f4565b5090565b6040518061018001604052806060815260200160608152602001606081526020016000815260200160006001600160a01b031681526020016060815260200160608152602001606081526020016060815260200160001515815260200160006001600160a01b03168152602001606081525090565b6040518060e0016040528060006001600160a01b0316815260200160006001600160a01b0316815260200160608152602001606081526020016060815260200160608152602001600081525090565b8280548282559060005260206000209081019282156143cb579160200282015b828111156143cb57825182546001600160a01b0319166001600160a01b039091161782556020909201916001909101906144bf565b5b808211156143d757600081556001016144f5565b80356001600160a01b03811681146117c557600080fd5b600082601f830112614530578081fd5b81356001600160401b038082111561454a5761454a615740565b604051601f8301601f19168101602001828111828210171561456e5761456e615740565b604052828152848301602001861015614585578384fd5b82602086016020830137918201602001929092529392505050565b6000602082840312156145b1578081fd5b6145ba82614509565b9392505050565b60008060008060008060c087890312156145d9578182fd5b6145e287614509565b95506145f060208801614509565b945060408701356001600160401b038082111561460b578384fd5b6146178a838b01614520565b9550606089013591508082111561462c578384fd5b6146388a838b01614520565b9450608089013591508082111561464d578384fd5b6146598a838b01614520565b935060a089013591508082111561466e578283fd5b5061467b89828a01614520565b9150509295509295509295565b600060208284031215614699578081fd5b81356001600160401b038111156146ae578182fd5b6146ba84828501614520565b949350505050565b600080604083850312156146d4578182fd5b82356001600160401b038111156146e9578283fd5b6146f585828601614520565b92505061470460208401614509565b90509250929050565b600080600060608486031215614721578283fd5b83356001600160401b03811115614736578384fd5b61474286828701614520565b93505061475160208501614509565b9150604084013590509250925092565b60008060008060808587031215614776578384fd5b84356001600160401b038082111561478c578586fd5b61479888838901614520565b955060208701359150600682106147ad578485fd5b909350604086013590808211156147c2578384fd5b6147ce88838901614520565b935060608701359150808211156147e3578283fd5b506147f087828801614520565b91505092959194509250565b6000806040838503121561480e578182fd5b82356001600160401b0380821115614824578384fd5b61483086838701614520565b93506020850135915080821115614845578283fd5b5061485285828601614520565b9150509250929050565b600080600060608486031215614870578283fd5b83356001600160401b0380821115614886578485fd5b61489287838801614520565b945060208601359150808211156148a7578384fd5b506148b486828701614520565b925050604084013580151581146148c9578182fd5b809150509250925092565b600080600080608085870312156148e9578384fd5b84356001600160401b03808211156148ff578586fd5b61490b88838901614520565b95506020870135915080821115614920578485fd5b61492c88838901614520565b945060408701359150808211156147c2578384fd5b600080600080600080600060e0888a03121561495b578081fd5b87356001600160401b0380821115614971578283fd5b61497d8b838c01614520565b985060208a0135915080821115614992578283fd5b61499e8b838c01614520565b975060408a01359150808211156149b3578283fd5b6149bf8b838c01614520565b965060608a0135955060808a01359150808211156149db578283fd5b6149e78b838c01614520565b945060a08a01359150808211156149fc578283fd5b614a088b838c01614520565b935060c08a0135915080821115614a1d578283fd5b50614a2a8a828b01614520565b91505092959891949750929550565b600080600060608486031215614a4d578081fd5b83356001600160401b03811115614a62578182fd5b614a6e86828701614520565b9660208601359650604090950135949350505050565b600060208284031215614a95578081fd5b5035919050565b6001600160a01b03169052565b6000815180845260208085019450808401835b83811015614ae15781516001600160a01b031687529582019590820190600101614abc565b509495945050505050565b15159052565b60008151808452614b0a8160208601602086016156ae565b601f01601f19169290920160200192915050565b805460009060028104600180831680614b3857607f831692505b6020808410821415614b5857634e487b7160e01b86526022600452602486fd5b818015614b6c5760018114614b7d57614ba9565b60ff19861689528489019650614ba9565b876000528160002060005b86811015614ba15781548b820152908501908301614b88565b505084890196505b50505050505092915050565b60068110614bd357634e487b7160e01b600052602160045260246000fd5b9052565b60006145ba8284614b1e565b60008251614bf58184602087016156ae565b9190910192915050565b6001600160a01b0391909116815260200190565b6001600160a01b0388811682528716602082015260e060408201819052600090614c3f90830188614af2565b8281036060840152614c518188614af2565b90508281036080840152614c658187614af2565b905082810360a0840152614c798186614af2565b9150508260c083015298975050505050505050565b6001600160a01b0387811682528616602082015260c060408201819052600090614cba90830187614af2565b6060830195909552506080810192909252151560a0909101529392505050565b6001600160a01b038816815260e060208201819052600090614cfe90830189614af2565b614d0b6040840189614bb5565b8281036060840152614d1d8188614af2565b90508281036080840152614d318187614af2565b94151560a0840152505060c0015295945050505050565b6001600160a01b038816815260e060208201819052600090614d6c90830189614af2565b8281036040840152614d7e8189614af2565b90508281036060840152614d1d8188614af2565b6001600160a01b0385168152608060208201819052600090614db690830186614af2565b60408301949094525090151560609091015292915050565b6020808252825182820181905260009190848201906040850190845b81811015614e0f5783516001600160a01b031683529284019291840191600101614dea565b50909695505050505050565b60208082528251828201819052600091906040908185019080840286018301878501865b83811015614efa57888303603f19018552815180516001600160a01b031684528781015160e090614e728a870182614a9c565b50878201518189870152614e8882870182614af2565b91505060608083015186830382880152614ea28382614af2565b9250505060808083015186830382880152614ebd8382614af2565b9250505060a08083015186830382880152614ed88382614af2565b60c0948501519790940196909652505094870194925090860190600101614e3f565b509098975050505050505050565b60208082528251828201819052600091906040908185019080840286018301878501865b83811015614efa57603f1989840301855281516101808151818652614f5382870182614af2565b915050888201518582038a870152614f6b8282614af2565b9150508782015185820389870152614f838282614af2565b9150506060808301518187015250608080830151614fa382880182614a9c565b505060a08083015186830382880152614fbc8382614aa9565b9250505060c08083015186830382880152614fd78382614af2565b9250505060e08083015186830382880152614ff28382614af2565b92505050610100808301518683038288015261500e8382614af2565b925050506101208083015161502582880182614aec565b50506101408083015161503a82880182614a9c565b505061016080830151925085820381870152506150578183614aa9565b968901969450505090860190600101614f2c565b901515815260200190565b6000602082526145ba6020830184614af2565b60006040825261509c6040830185614af2565b90506145ba6020830184614bb5565b60006101408083526150bf8184018e614af2565b905082810360208401526150d3818d614af2565b905082810360408401526150e7818c614af2565b606084018b90526001600160a01b038a8116608086015284820360a0860152909150615113828a614af2565b915083820360c08501526151278289614af2565b915083820360e085015261513b8288614af2565b925085151561010085015280851661012085015250509b9a5050505050505050505050565b600060a0825261517360a0830188614af2565b82810360208401526151858188614af2565b6040840196909652505091151560608301526001600160a01b031660809091015292915050565b6000608082526151bf6080830187614af2565b60208301959095525091151560408301526001600160a01b0316606090910152919050565b6020808252601490820152734e616d652063616e6e6f7420626520656d70747960601b604082015260600190565b6020808252602a908201527f4e6f7420617574686f72697a656420746f2075706461746520746869732044496040820152691108191bd8dd5b595b9d60b21b606082015260800190565b602080825260129082015271111251081b9bdd081c9959da5cdd195c995960721b604082015260600190565b6020808252601a908201527f456e74697479204449442063616e6e6f7420626520656d707479000000000000604082015260600190565b602080825260129082015271125b9d985b1a59081a5cdcdd595c8811125160721b604082015260600190565b602080825260139082015272125b9d985b1a59081cdd589a9958dd08111251606a1b604082015260600190565b6020808252600e908201526d4e6f742061206d656368616e696360901b604082015260600190565b60208082526014908201527310dc9959195b9d1a585b081b9bdd08199bdd5b9960621b604082015260600190565b6020808252601c908201527f4e6577206f776e6572206d757374206265207265676973746572656400000000604082015260600190565b60208082526019908201527f4e6f7420612072656769737465726564206d656368616e696300000000000000604082015260600190565b6020808252600e908201526d155cd95c881b9bdd08199bdd5b9960921b604082015260600190565b6020808252601f908201527f4e6f7420617574686f72697a656420666f7220746869732076656869636c6500604082015260600190565b6020808252601c908201527f43726564656e7469616c20494420616c72656164792065786973747300000000604082015260600190565b60208082526017908201527f5573657220616c72656164792072656769737465726564000000000000000000604082015260600190565b60208082526021908201527f44657374696e6174696f6e20656e74697479206e6f74207265676973746572656040820152601960fa1b606082015260800190565b60208082526016908201527515995a1a58db19481b9bdd081c9959da5cdd195c995960521b604082015260600190565b6020808252601190820152702737ba103b32b434b1b6329037bbb732b960791b604082015260600190565b6020808252601a908201527f57616c6c6574204449442063616e6e6f7420626520656d707479000000000000604082015260600190565b6020808252600f908201526e13dddb995c881b9bdd08199bdd5b99608a1b604082015260600190565b60208082526018908201527f446f63756d656e742063616e6e6f7420626520656d7074790000000000000000604082015260600190565b60208082526018908201527f4e6f7420616e20696e737572616e636520636f6d70616e790000000000000000604082015260600190565b6020808252601c908201527f536f7572636520656e74697479206e6f74207265676973746572656400000000604082015260600190565b6020808252601490820152732b32b434b1b632903430b99037379037bbb732b960611b604082015260600190565b6020808252601390820152724449442063616e6e6f7420626520656d70747960681b604082015260600190565b90815260200190565b60005b838110156156c95781810151838201526020016156b1565b838111156156d8576000848401525b50505050565b6002810460018216806156f257607f821691505b6020821081141561571357634e487b7160e01b600052602260045260246000fd5b50919050565b600060001982141561573957634e487b7160e01b81526011600452602481fd5b5060010190565b634e487b7160e01b600052604160045260246000fdfef33dad7638394be78e889d9c8fef4ae0b61e1f55e344896dd80588ccecf58f55a26469706673582212200880ff6e6fc95d69e954cafd0f63991c2b13fb1953e79b3f12109dd494820fb064736f6c63430008000033",
  "immutableReferences": {},
  "source": "// SPDX-License-Identifier: MIT\npragma solidity ^0.8.0;\n\n/**\n * @title SmartContract\n * @dev Comprehensive smart contract for managing decentralized identities, \n * vehicle registrations, multi-party interactions, and IoV ecosystem interactions\n */\ncontract SmartContract {\n    // Enum for user types with expanded roles\n    enum UserType { \n        Individual, \n        Mechanic, \n        InsuranceCompany, \n        RoadsideUnit,\n        VehicleManufacturer,\n        Car\n    }\n\n    // Struct to represent different entities\n    struct User {\n        address userAddress;\n        string name;\n        UserType userType;\n        string entityDID;\n        string walletDID;\n        bool isRegistered;\n        uint256 registrationTimestamp;\n    }\n\n    struct Vehicle {\n        string vin;\n        string make;\n        string model;\n        uint256 year;\n        address currentOwner;\n        address[] previousOwners;\n        string entityDID;\n        string walletDID;\n        string credentialDID;\n        bool isRegistered;\n        address currentInsurer;\n        address[] maintenanceProviders;\n    }\n\n    struct RoadsideUnit {\n        address unitAddress;\n        string name;\n        string location;\n        string entityDID;\n        string walletDID;\n        bool isActive;\n        uint256 registrationTimestamp;\n    }\n\n    struct MaintenanceRecord {\n        address mechanic;\n        string serviceDescription;\n        uint256 timestamp;\n        bool isCritical;\n    }\n\n    struct InsurancePolicy {\n        address insurer;\n        address vehicleOwner;\n        string vin;\n        uint256 startDate;\n        uint256 endDate;\n        bool isActive;\n    }\n\n    struct Interaction {\n        address source;\n        address destination;\n        string sourceIdentifier;      // Can be VIN, DID, or other identifier\n        string destinationIdentifier; // Can be VIN, DID, or other identifier\n        string interactionType;\n        bytes payload;\n        uint256 timestamp;\n    }\n\n    struct DIDDocument {\n        string did;\n        string document;  // JSON string of the DID document\n        uint256 timestamp;\n        bool isActive;\n        address controller;  // Address that controls this DID\n    }\n\n    // Mappings to store entities\n    mapping(address => User) public users;\n    mapping(string => Vehicle) public vehicles;\n    mapping(string => InsurancePolicy) public vehicleInsurance;\n    mapping(address => RoadsideUnit) public roadsideUnits;\n    \n    // DID Management\n    mapping(string => bool) public didRegistry;\n    mapping(string => DIDDocument) public didDocuments;  // Store DID documents\n\n    // Mapping from DID to user address\n    mapping(string => address) public didToAddress;\n\n    // Mapping to track registered DIDs\n    mapping(string => bool) public registeredDIDs;\n\n    // Array to track all registered addresses\n    address[] private registeredAddresses;\n\n    // Array to track all registered VINs\n    string[] public registeredVINs;\n\n    // Tracking arrays\n    Interaction[] public interactions;\n\n    // Mappings for authorized mechanics and maintenance history\n    mapping(string => mapping(address => bool)) public authorizedMechanics;\n    mapping(string => mapping(address => MaintenanceRecord[])) public maintenanceHistory;\n\n    // Credential storage\n    mapping(string => string) private credentials;\n    mapping(string => address) private credentialIssuers;\n    mapping(string => string) private credentialSubjects;\n\n    // Events for tracking actions\n    event UserRegistered(address indexed userAddress, string name, UserType userType);\n    event VehicleRegistered(string indexed vin, address indexed owner);\n    event VehicleOwnershipTransferred(string indexed vin, address indexed previousOwner, address indexed newOwner);\n    event MaintenanceRecordAdded(string indexed vin, address indexed mechanic, string serviceDescription);\n    event InsurancePolicyCreated(string indexed vin, address indexed insurer, address indexed owner);\n    event MechanicAuthorized(string indexed vin, address indexed mechanic);\n    event RoadsideUnitRegistered(address indexed unitAddress, string name, string location);\n    event DIDRegistered(string indexed did);\n    event InteractionRecorded(string indexed sourceIdentifier, string indexed destinationIdentifier, string interactionType);\n    event DIDDocumentUpdated(string indexed did, address indexed controller, uint256 timestamp);\n\n    // Modifiers (remain the same)\n    modifier onlyUnregisteredUser() {\n        require(!users[msg.sender].isRegistered, \"User already registered\");\n        _;\n    }\n\n    modifier onlyRegisteredUser() {\n        require(users[msg.sender].isRegistered, \"User not registered\");\n        _;\n    }\n\n    modifier onlyVehicleOwner(string memory _vin) {\n        require(vehicles[_vin].currentOwner == msg.sender, \"Not vehicle owner\");\n        _;\n    }\n\n    modifier onlyMechanic() {\n        require(users[msg.sender].userType == UserType.Mechanic, \"Not a mechanic\");\n        _;\n    }\n\n    modifier onlyInsuranceCompany() {\n        require(users[msg.sender].userType == UserType.InsuranceCompany, \"Not an insurance company\");\n        _;\n    }\n\n    modifier onlyRoadsideUnit() {\n        require(users[msg.sender].userType == UserType.RoadsideUnit, \"Not a roadside unit\");\n        _;\n    }\n\n    /**\n     * @dev Register a new user with Decentralized Identity\n     */\n    function registerUser(\n        string memory _name, \n        UserType _userType,\n        string memory _entityDID,\n        string memory _walletDID\n    ) public {\n        require(bytes(_name).length > 0, \"Name cannot be empty\");\n        require(bytes(_entityDID).length > 0, \"Entity DID cannot be empty\");\n        require(bytes(_walletDID).length > 0, \"Wallet DID cannot be empty\");\n        require(!users[msg.sender].isRegistered, \"User already registered\");\n        \n        users[msg.sender] = User({\n            userAddress: msg.sender,\n            name: _name,\n            userType: _userType,\n            entityDID: _entityDID,\n            walletDID: _walletDID,\n            isRegistered: true,\n            registrationTimestamp: block.timestamp\n        });\n        \n        registeredAddresses.push(msg.sender);\n        \n        didToAddress[_entityDID] = msg.sender;\n        didToAddress[_walletDID] = msg.sender;\n        \n        registeredDIDs[_entityDID] = true;\n        registeredDIDs[_walletDID] = true;\n        \n        emit UserRegistered(msg.sender, _name, _userType);\n        emit DIDRegistered(_entityDID);\n        emit DIDRegistered(_walletDID);\n    }\n\n    /**\n     * @dev Authorize a mechanic for a specific vehicle\n     */\n    function authorizeMechanic(\n        string memory _vin, \n        address _mechanic\n    ) public onlyVehicleOwner(_vin) {\n        require(users[_mechanic].userType == UserType.Mechanic, \"Not a registered mechanic\");\n        \n        authorizedMechanics[_vin][_mechanic] = true;\n        \n        emit MechanicAuthorized(_vin, _mechanic);\n    }\n\n    /**\n     * @dev Add maintenance record for a vehicle\n     */\n    function addMaintenanceRecord(\n        string memory _vin, \n        string memory _serviceDescription, \n        bool _isCritical\n    ) public onlyMechanic {\n        require(authorizedMechanics[_vin][msg.sender], \"Not authorized for this vehicle\");\n\n        MaintenanceRecord memory record = MaintenanceRecord({\n            mechanic: msg.sender,\n            serviceDescription: _serviceDescription,\n            timestamp: block.timestamp,\n            isCritical: _isCritical\n        });\n        \n        maintenanceHistory[_vin][msg.sender].push(record);\n        vehicles[_vin].maintenanceProviders.push(msg.sender);\n        \n        emit MaintenanceRecordAdded(_vin, msg.sender, _serviceDescription);\n    }\n\n    /**\n     * @dev Create insurance policy for a vehicle\n     */\n    function createInsurancePolicy(\n        string memory _vin, \n        uint256 _startDate, \n        uint256 _endDate\n    ) public onlyInsuranceCompany {\n        Vehicle storage vehicle = vehicles[_vin];\n        \n        require(vehicle.isRegistered, \"Vehicle not registered\");\n        require(vehicle.currentOwner != address(0), \"Vehicle has no owner\");\n\n        vehicleInsurance[_vin] = InsurancePolicy({\n            insurer: msg.sender,\n            vehicleOwner: vehicle.currentOwner,\n            vin: _vin,\n            startDate: _startDate,\n            endDate: _endDate,\n            isActive: true\n        });\n\n        vehicle.currentInsurer = msg.sender;\n\n        emit InsurancePolicyCreated(_vin, msg.sender, vehicle.currentOwner);\n    }\n\n    /**\n     * @dev Transfer vehicle ownership with comprehensive checks\n     */\n    function transferVehicleOwnership(\n        string memory _vin, \n        address _newOwner\n    ) public onlyVehicleOwner(_vin) {\n        require(users[_newOwner].isRegistered, \"New owner must be registered\");\n\n        Vehicle storage vehicle = vehicles[_vin];\n        address previousOwner = vehicle.currentOwner;\n\n        vehicle.currentOwner = _newOwner;\n        vehicle.previousOwners.push(_newOwner);\n\n        if (vehicleInsurance[_vin].isActive) {\n            vehicleInsurance[_vin].isActive = false;\n        }\n\n        emit VehicleOwnershipTransferred(_vin, previousOwner, _newOwner);\n    }\n\n    /**\n     * @dev Record any interaction between two entities in the system\n     */\n    function recordInteraction(\n        address _source,\n        address _destination,\n        string memory _sourceIdentifier,\n        string memory _destinationIdentifier,\n        string memory _interactionType,\n        bytes memory _payload\n    ) public {\n        require(users[_source].isRegistered || vehicles[_sourceIdentifier].isRegistered, \n            \"Source entity not registered\");\n        require(\n            users[_destination].isRegistered || \n            vehicles[_destinationIdentifier].isRegistered || \n            roadsideUnits[_destination].isActive, \n            \"Destination entity not registered\"\n        );\n\n        Interaction memory interaction = Interaction({\n            source: _source,\n            destination: _destination,\n            sourceIdentifier: _sourceIdentifier,\n            destinationIdentifier: _destinationIdentifier,\n            interactionType: _interactionType,\n            payload: _payload,\n            timestamp: block.timestamp\n        });\n\n        interactions.push(interaction);\n\n        emit InteractionRecorded(_sourceIdentifier, _destinationIdentifier, _interactionType);\n    }\n\n    /**\n     * @dev Get all interactions for a specific entity\n     * @param _identifier The identifier (VIN, DID, etc.) of the entity\n     * @return Array of interactions where the entity was either source or destination\n     */\n    function getEntityInteractions(string memory _identifier) public view returns (Interaction[] memory) {\n        Interaction[] memory filteredInteractions = new Interaction[](interactions.length);\n        uint256 count = 0;\n\n        for (uint256 i = 0; i < interactions.length; i++) {\n            if (keccak256(abi.encodePacked(interactions[i].sourceIdentifier)) == keccak256(abi.encodePacked(_identifier)) ||\n                keccak256(abi.encodePacked(interactions[i].destinationIdentifier)) == keccak256(abi.encodePacked(_identifier))) {\n                filteredInteractions[count] = interactions[i];\n                count++;\n            }\n        }\n\n        // Resize array to actual count\n        assembly {\n            mstore(filteredInteractions, count)\n        }\n\n        return filteredInteractions;\n    }\n\n    /**\n     * @dev Get all interactions between two specific entities\n     */\n    function getInteractionsBetweenEntities(\n        string memory _identifier1, \n        string memory _identifier2\n    ) public view returns (Interaction[] memory) {\n        Interaction[] memory filteredInteractions = new Interaction[](interactions.length);\n        uint256 count = 0;\n\n        for (uint256 i = 0; i < interactions.length; i++) {\n            if ((keccak256(abi.encodePacked(interactions[i].sourceIdentifier)) == keccak256(abi.encodePacked(_identifier1)) &&\n                 keccak256(abi.encodePacked(interactions[i].destinationIdentifier)) == keccak256(abi.encodePacked(_identifier2))) ||\n                (keccak256(abi.encodePacked(interactions[i].sourceIdentifier)) == keccak256(abi.encodePacked(_identifier2)) &&\n                 keccak256(abi.encodePacked(interactions[i].destinationIdentifier)) == keccak256(abi.encodePacked(_identifier1)))) {\n                filteredInteractions[count] = interactions[i];\n                count++;\n            }\n        }\n\n        // Resize array to actual count\n        assembly {\n            mstore(filteredInteractions, count)\n        }\n\n        return filteredInteractions;\n    }\n\n\n\n    /**\n     * @dev Verify if a DID is valid\n     */\n    function isValidDID(string memory _did) public view returns (bool) {\n        return didRegistry[_did];\n    }\n\n    /**\n     * @dev Store a verifiable credential\n     */\n    function storeCredential(\n        string memory _credentialId,\n        string memory _issuerDid,\n        string memory _subjectDid,\n        string memory _credentialData\n    ) public {\n        require(isValidDID(_issuerDid), \"Invalid issuer DID\");\n        require(isValidDID(_subjectDid), \"Invalid subject DID\");\n        require(bytes(credentials[_credentialId]).length == 0, \"Credential ID already exists\");\n\n        credentials[_credentialId] = _credentialData;\n        credentialIssuers[_credentialId] = msg.sender;\n        credentialSubjects[_credentialId] = _subjectDid;\n    }\n\n    /**\n     * @dev Get a stored credential\n     */\n    function getCredential(string memory _credentialId) public view returns (string memory) {\n        require(bytes(credentials[_credentialId]).length > 0, \"Credential not found\");\n        return credentials[_credentialId];\n    }\n\n    /**\n     * @dev Get the number of registered addresses\n     */\n    function getRegisteredAddressesCount() public view returns (uint256) {\n        return registeredAddresses.length;\n    }\n\n    /**\n     * @dev Get all registered addresses\n     */\n    function getRegisteredAddresses() public view returns (address[] memory) {\n        return registeredAddresses;\n    }\n\n    /**\n     * @dev Register a vehicle with its DIDs\n     */\n    function registerVehicle(\n        string memory _vin,\n        string memory _ownerDID,\n        string memory _entityDID,\n        uint256 _year,\n        string memory _make,\n        string memory _model,\n        string memory _walletDID\n    ) public {\n        // Find owner's address from their DID\n        address ownerAddress;\n        bool found = false;\n        for (uint256 i = 0; i < registeredAddresses.length; i++) {\n            address userAddress = registeredAddresses[i];\n            if (keccak256(bytes(users[userAddress].entityDID)) == keccak256(bytes(_ownerDID))) {\n                ownerAddress = userAddress;\n                found = true;\n                break;\n            }\n        }\n        require(found, \"Owner not found\");\n\n        // Create new vehicle\n        address[] memory emptyAddresses = new address[](0);\n        vehicles[_vin] = Vehicle({\n            vin: _vin,\n            make: _make,\n            model: _model,\n            year: _year,\n            currentOwner: ownerAddress,  // Set the owner's address\n            previousOwners: emptyAddresses,\n            entityDID: _entityDID,\n            walletDID: _walletDID,\n            credentialDID: \"\",\n            isRegistered: true,\n            currentInsurer: address(0),\n            maintenanceProviders: emptyAddresses\n        });\n\n        // Add to registered VINs\n        registeredVINs.push(_vin);\n\n        // Register DIDs\n        didRegistry[_entityDID] = true;\n        didRegistry[_walletDID] = true;\n\n        emit VehicleRegistered(_vin, ownerAddress);\n        emit DIDRegistered(_entityDID);\n        emit DIDRegistered(_walletDID);\n    }\n\n    /**\n     * @dev Function to get user address by DID\n     */\n    function getUserAddressByDID(string memory _entityDID) public view returns (address) {\n        address userAddress = didToAddress[_entityDID];\n        require(userAddress != address(0), \"User not found\");\n        return userAddress;\n    }\n\n    /**\n     * @dev Store or update a DID document\n     * @param _did The DID to store/update\n     * @param _document The DID document as a JSON string\n     */\n    function storeDIDDocument(\n        string memory _did,\n        string memory _document\n    ) public {\n        require(bytes(_did).length > 0, \"DID cannot be empty\");\n        require(bytes(_document).length > 0, \"Document cannot be empty\");\n        \n        // Check if caller is authorized to update this DID\n        if (didDocuments[_did].controller != address(0)) {\n            require(\n                didDocuments[_did].controller == msg.sender,\n                \"Not authorized to update this DID document\"\n            );\n        }\n        \n        // Store/update the DID document\n        didDocuments[_did] = DIDDocument({\n            did: _did,\n            document: _document,\n            timestamp: block.timestamp,\n            isActive: true,\n            controller: msg.sender\n        });\n        \n        // Register the DID if not already registered\n        if (!didRegistry[_did]) {\n            didRegistry[_did] = true;\n        }\n        \n        emit DIDDocumentUpdated(_did, msg.sender, block.timestamp);\n    }\n\n    /**\n     * @dev Get a DID document\n     * @param _did The DID to retrieve\n     * @return document The DID document as a JSON string\n     * @return timestamp When the document was last updated\n     * @return isActive Whether the DID is active\n     * @return controller Address that controls this DID\n     */\n    function getDIDDocument(string memory _did) \n        public \n        view \n        returns (\n            string memory document,\n            uint256 timestamp,\n            bool isActive,\n            address controller\n        ) \n    {\n        require(bytes(_did).length > 0, \"DID cannot be empty\");\n        require(didRegistry[_did], \"DID not registered\");\n        \n        DIDDocument memory doc = didDocuments[_did];\n        return (\n            doc.document,\n            doc.timestamp,\n            doc.isActive,\n            doc.controller\n        );\n    }\n\n   \n    /**\n     * @dev Check if a user exists\n     */\n    function isUserRegistered(string memory _did) public view returns (bool) {\n        return registeredDIDs[_did];\n    }\n\n    /**\n     * @dev Get all vehicles owned by a user based on their DID\n     */\n    function getUserVehicles(string memory _ownerDID) public view returns (Vehicle[] memory) {\n        // First count how many vehicles the user owns\n        uint256 count = 0;\n        for (uint256 i = 0; i < registeredVINs.length; i++) {\n            string memory vin = registeredVINs[i];\n            Vehicle memory vehicle = vehicles[vin];\n            \n            // Find owner's address from their DID\n            for (uint256 j = 0; j < registeredAddresses.length; j++) {\n                address userAddress = registeredAddresses[j];\n                if (keccak256(bytes(users[userAddress].entityDID)) == keccak256(bytes(_ownerDID))) {\n                    if (vehicle.currentOwner == userAddress) {\n                        count++;\n                    }\n                    break;\n                }\n            }\n        }\n        \n        // Create array of owned vehicles\n        Vehicle[] memory ownedVehicles = new Vehicle[](count);\n        uint256 index = 0;\n        \n        // Fill the array with owned vehicles\n        for (uint256 i = 0; i < registeredVINs.length; i++) {\n            string memory vin = registeredVINs[i];\n            Vehicle memory vehicle = vehicles[vin];\n            \n            // Find owner's address from their DID\n            for (uint256 j = 0; j < registeredAddresses.length; j++) {\n                address userAddress = registeredAddresses[j];\n                if (keccak256(bytes(users[userAddress].entityDID)) == keccak256(bytes(_ownerDID))) {\n                    if (vehicle.currentOwner == userAddress) {\n                        ownedVehicles[index] = vehicle;\n                        index++;\n                    }\n                    break;\n                }\n            }\n        }\n        \n        return ownedVehicles;\n    }\n}",
  "sourcePath": "/Users/ahsan/Desktop/ssi-iov-final - Copy (2)/contracts/SmartContract.sol",
  "compiler": {
    "name": "solc",
    "version": "0.8.0+commit.c7dfd78e.Emscripten.clang"
  },
  "schemaVersion": "3.4.16",
  "updatedAt": "2025-04-26T06:27:42.266Z",
  "networkType": "ethereum",
  "devdoc": {
    "details": "Comprehensive smart contract for managing decentralized identities,  vehicle registrations, multi-party interactions, and IoV ecosystem interactions",
    "kind": "dev",
    "methods": {
      "addMaintenanceRecord(string,string,bool)": {
        "details": "Add maintenance record for a vehicle"
      },
      "authorizeMechanic(string,address)": {
        "details": "Authorize a mechanic for a specific vehicle"
      },
      "createInsurancePolicy(string,uint256,uint256)": {
        "details": "Create insurance policy for a vehicle"
      },
      "getCredential(string)": {
        "details": "Get a stored credential"
      },
      "getDIDDocument(string)": {
        "details": "Get a DID document",
        "params": {
          "_did": "The DID to retrieve"
        },
        "returns": {
          "controller": "Address that controls this DID",
          "document": "The DID document as a JSON string",
          "isActive": "Whether the DID is active",
          "timestamp": "When the document was last updated"
        }
      },
      "getEntityInteractions(string)": {
        "details": "Get all interactions for a specific entity",
        "params": {
          "_identifier": "The identifier (VIN, DID, etc.) of the entity"
        },
        "returns": {
          "_0": "Array of interactions where the entity was either source or destination"
        }
      },
      "getInteractionsBetweenEntities(string,string)": {
        "details": "Get all interactions between two specific entities"
      },
      "getRegisteredAddresses()": {
        "details": "Get all registered addresses"
      },
      "getRegisteredAddressesCount()": {
        "details": "Get the number of registered addresses"
      },
      "getUserAddressByDID(string)": {
        "details": "Function to get user address by DID"
      },
      "getUserVehicles(string)": {
        "details": "Get all vehicles owned by a user based on their DID"
      },
      "isUserRegistered(string)": {
        "details": "Check if a user exists"
      },
      "isValidDID(string)": {
        "details": "Verify if a DID is valid"
      },
      "recordInteraction(address,address,string,string,string,bytes)": {
        "details": "Record any interaction between two entities in the system"
      },
      "registerUser(string,uint8,string,string)": {
        "details": "Register a new user with Decentralized Identity"
      },
      "registerVehicle(string,string,string,uint256,string,string,string)": {
        "details": "Register a vehicle with its DIDs"
      },
      "storeCredential(string,string,string,string)": {
        "details": "Store a verifiable credential"
      },
      "storeDIDDocument(string,string)": {
        "details": "Store or update a DID document",
        "params": {
          "_did": "The DID to store/update",
          "_document": "The DID document as a JSON string"
        }
      },
      "transferVehicleOwnership(string,address)": {
        "details": "Transfer vehicle ownership with comprehensive checks"
      }
    },
    "title": "SmartContract",
    "version": 1
  },
  "userdoc": {
    "kind": "user",
    "methods": {},
    "version": 1
  }
}